{
  "contractName": "ToDo",
  "abi": [
    {
      "inputs": [],
      "stateMutability": "nonpayable",
      "type": "constructor"
    },
    {
      "anonymous": false,
      "inputs": [
        {
          "indexed": false,
          "internalType": "uint256",
          "name": "",
          "type": "uint256"
        },
        {
          "indexed": false,
          "internalType": "uint256",
          "name": "",
          "type": "uint256"
        },
        {
          "indexed": false,
          "internalType": "string",
          "name": "",
          "type": "string"
        },
        {
          "indexed": false,
          "internalType": "string",
          "name": "",
          "type": "string"
        },
        {
          "indexed": false,
          "internalType": "bool",
          "name": "",
          "type": "bool"
        }
      ],
      "name": "TaskCreated",
      "type": "event"
    },
    {
      "inputs": [
        {
          "internalType": "string",
          "name": "_content",
          "type": "string"
        },
        {
          "internalType": "string",
          "name": "_author",
          "type": "string"
        }
      ],
      "name": "createTask",
      "outputs": [],
      "stateMutability": "nonpayable",
      "type": "function"
    },
    {
      "inputs": [],
      "name": "getTaskIds",
      "outputs": [
        {
          "internalType": "uint256[]",
          "name": "",
          "type": "uint256[]"
        }
      ],
      "stateMutability": "view",
      "type": "function",
      "constant": true
    },
    {
      "inputs": [
        {
          "internalType": "uint256",
          "name": "id",
          "type": "uint256"
        }
      ],
      "name": "getTask",
      "outputs": [
        {
          "internalType": "uint256",
          "name": "",
          "type": "uint256"
        },
        {
          "internalType": "uint256",
          "name": "",
          "type": "uint256"
        },
        {
          "internalType": "string",
          "name": "",
          "type": "string"
        },
        {
          "internalType": "string",
          "name": "",
          "type": "string"
        },
        {
          "internalType": "bool",
          "name": "",
          "type": "bool"
        }
      ],
      "stateMutability": "view",
      "type": "function",
      "constant": true
    }
  ],
  "bytecode": "0x608060405234801561001057600080fd5b5060016000819055506109fa806100286000396000f3fe608060405234801561001057600080fd5b506004361061005e576000357c0100000000000000000000000000000000000000000000000000000000900480631d65e77e14610063578063292a458514610097578063bcd14805146100b3575b600080fd5b61007d6004803603810190610078919061050f565b6100d1565b60405161008e9594939291906105ff565b60405180910390f35b6100b160048036038101906100ac9190610795565b610291565b005b6100bb6103ca565b6040516100c891906108cb565b60405180910390f35b60008060608060008560006002600083815260200190815260200160002060000154036100fd57600080fd5b866002600089815260200190815260200160002060010154600260008a8152602001908152602001600020600201600260008b8152602001908152602001600020600301600260008c815260200190815260200160002060040160009054906101000a900460ff168280546101719061091c565b80601f016020809104026020016040519081016040528092919081815260200182805461019d9061091c565b80156101ea5780601f106101bf576101008083540402835291602001916101ea565b820191906000526020600020905b8154815290600101906020018083116101cd57829003601f168201915b505050505092508180546101fd9061091c565b80601f01602080910402602001604051908101604052809291908181526020018280546102299061091c565b80156102765780601f1061024b57610100808354040283529160200191610276565b820191906000526020600020905b81548152906001019060200180831161025957829003601f168201915b50505050509150955095509550955095505091939590929450565b6040518060a00160405280600054815260200142815260200183815260200182815260200160001515815250600260008054815260200190815260200160002060008201518160000155602082015181600101556040820151816002019080519060200190610301929190610422565b50606082015181600301908051906020019061031e929190610422565b5060808201518160040160006101000a81548160ff0219169083151502179055509050507fb322bdd3250d405f7845d27fa1f0753f8f7e18e40886bc254b89005c3e9c0324600054428484600060405161037c9594939291906105ff565b60405180910390a1600160005490806001815401808255809150506001900390600052602060002001600090919091909150556000808154809291906103c19061097c565b91905055505050565b6060600180548060200260200160405190810160405280929190818152602001828054801561041857602002820191906000526020600020905b815481526020019060010190808311610404575b5050505050905090565b82805461042e9061091c565b90600052602060002090601f0160209004810192826104505760008555610497565b82601f1061046957805160ff1916838001178555610497565b82800160010185558215610497579182015b8281111561049657825182559160200191906001019061047b565b5b5090506104a491906104a8565b5090565b5b808211156104c15760008160009055506001016104a9565b5090565b6000604051905090565b600080fd5b600080fd5b6000819050919050565b6104ec816104d9565b81146104f757600080fd5b50565b600081359050610509816104e3565b92915050565b600060208284031215610525576105246104cf565b5b6000610533848285016104fa565b91505092915050565b610545816104d9565b82525050565b600081519050919050565b600082825260208201905092915050565b60005b8381101561058557808201518184015260208101905061056a565b83811115610594576000848401525b50505050565b6000601f19601f8301169050919050565b60006105b68261054b565b6105c08185610556565b93506105d0818560208601610567565b6105d98161059a565b840191505092915050565b60008115159050919050565b6105f9816105e4565b82525050565b600060a082019050610614600083018861053c565b610621602083018761053c565b818103604083015261063381866105ab565b9050818103606083015261064781856105ab565b905061065660808301846105f0565b9695505050505050565b600080fd5b600080fd5b7f4e487b7100000000000000000000000000000000000000000000000000000000600052604160045260246000fd5b6106a28261059a565b810181811067ffffffffffffffff821117156106c1576106c061066a565b5b80604052505050565b60006106d46104c5565b90506106e08282610699565b919050565b600067ffffffffffffffff821115610700576106ff61066a565b5b6107098261059a565b9050602081019050919050565b82818337600083830152505050565b6000610738610733846106e5565b6106ca565b90508281526020810184848401111561075457610753610665565b5b61075f848285610716565b509392505050565b600082601f83011261077c5761077b610660565b5b813561078c848260208601610725565b91505092915050565b600080604083850312156107ac576107ab6104cf565b5b600083013567ffffffffffffffff8111156107ca576107c96104d4565b5b6107d685828601610767565b925050602083013567ffffffffffffffff8111156107f7576107f66104d4565b5b61080385828601610767565b9150509250929050565b600081519050919050565b600082825260208201905092915050565b6000819050602082019050919050565b610842816104d9565b82525050565b60006108548383610839565b60208301905092915050565b6000602082019050919050565b60006108788261080d565b6108828185610818565b935061088d83610829565b8060005b838110156108be5781516108a58882610848565b97506108b083610860565b925050600181019050610891565b5085935050505092915050565b600060208201905081810360008301526108e5818461086d565b905092915050565b7f4e487b7100000000000000000000000000000000000000000000000000000000600052602260045260246000fd5b6000600282049050600182168061093457607f821691505b602082108103610947576109466108ed565b5b50919050565b7f4e487b7100000000000000000000000000000000000000000000000000000000600052601160045260246000fd5b6000610987826104d9565b91507fffffffffffffffffffffffffffffffffffffffffffffffffffffffffffffffff82036109b9576109b861094d565b5b60018201905091905056fea2646970667358221220d316ffa13817c1ac86c597a5ec6d20c5c213e3df118084abe57377ac9fa826b164736f6c634300080d0033",
  "immutableReferences": {},
  "source": "// SPDX-License-Identifier: MIT\npragma solidity ^0.8.0;\n\n// pragma abicoder v2;\n\ncontract ToDo {\n    struct Task {\n        uint256 id;\n        uint256 date;\n        string content;\n        string author;\n        bool done;\n    }\n\n    uint256 lastId;\n    uint256[] taskIds;\n    mapping(uint256 => Task) tasks;\n\n    constructor() {\n        lastId = 1;\n    }\n\n    event TaskCreated(uint256, uint256, string, string, bool);\n\n    // Create a new task\n    function createTask(string memory _content, string memory _author) public {\n        tasks[lastId] = Task(lastId, block.timestamp, _content, _author, false);\n        emit TaskCreated(lastId, block.timestamp, _content, _author, false);\n        taskIds.push(lastId);\n        lastId++;\n    }\n\n    function getTaskIds() public view returns (uint256[] memory) {\n        return taskIds; // Can't we just map the keys?\n    }\n\n    // Get task\n    function getTask(uint256 id)\n        public\n        view\n        tasksExists(id)\n        returns (\n            uint256,\n            uint256,\n            string memory,\n            string memory,\n            bool\n        )\n    {\n        return (\n            id,\n            tasks[id].date,\n            tasks[id].content,\n            tasks[id].author,\n            tasks[id].done\n        );\n    }\n\n    // Modifier runs before a function\n    // This modifier checks if the task per id exists\n    modifier tasksExists(uint256 id) {\n        if (tasks[id].id == 0) {\n            revert();\n        }\n        _;\n    }\n}\n",
  "sourcePath": "D:\\Code\\todolist-eth\\contracts\\contracts\\ToDo.sol",
  "compiler": {
    "name": "solc",
    "version": "0.8.13+commit.abaa5c0e.Emscripten.clang"
  },
  "schemaVersion": "3.4.7",
  "updatedAt": "2022-04-09T05:42:09.922Z",
  "networkType": "ethereum",
  "devdoc": {
    "kind": "dev",
    "methods": {},
    "version": 1
  },
  "userdoc": {
    "kind": "user",
    "methods": {},
    "version": 1
  }
}