{
  "contractName": "ToDo",
  "abi": [
    {
      "inputs": [],
      "stateMutability": "nonpayable",
      "type": "constructor"
    },
    {
      "anonymous": false,
      "inputs": [
        {
          "indexed": false,
          "internalType": "uint256",
          "name": "",
          "type": "uint256"
        },
        {
          "indexed": false,
          "internalType": "uint256",
          "name": "",
          "type": "uint256"
        },
        {
          "indexed": false,
          "internalType": "string",
          "name": "",
          "type": "string"
        },
        {
          "indexed": false,
          "internalType": "string",
          "name": "",
          "type": "string"
        },
        {
          "indexed": false,
          "internalType": "bool",
          "name": "",
          "type": "bool"
        }
      ],
      "name": "TaskCreated",
      "type": "event"
    },
    {
      "inputs": [
        {
          "internalType": "string",
          "name": "_content",
          "type": "string"
        },
        {
          "internalType": "string",
          "name": "_author",
          "type": "string"
        }
      ],
      "name": "createTask",
      "outputs": [],
      "stateMutability": "nonpayable",
      "type": "function"
    },
    {
      "inputs": [],
      "name": "getTaskIds",
      "outputs": [
        {
          "internalType": "uint256[]",
          "name": "",
          "type": "uint256[]"
        }
      ],
      "stateMutability": "view",
      "type": "function",
      "constant": true
    },
    {
      "inputs": [
        {
          "internalType": "uint256",
          "name": "id",
          "type": "uint256"
        }
      ],
      "name": "getTask",
      "outputs": [
        {
          "internalType": "uint256",
          "name": "",
          "type": "uint256"
        },
        {
          "internalType": "uint256",
          "name": "",
          "type": "uint256"
        },
        {
          "internalType": "string",
          "name": "",
          "type": "string"
        },
        {
          "internalType": "string",
          "name": "",
          "type": "string"
        },
        {
          "internalType": "bool",
          "name": "",
          "type": "bool"
        }
      ],
      "stateMutability": "view",
      "type": "function",
      "constant": true
    },
    {
      "inputs": [],
      "name": "getLastId",
      "outputs": [
        {
          "internalType": "uint256",
          "name": "",
          "type": "uint256"
        }
      ],
      "stateMutability": "view",
      "type": "function",
      "constant": true
    }
  ],
  "bytecode": "0x608060405234801561001057600080fd5b506001600081905550610a2a806100286000396000f3fe608060405234801561001057600080fd5b506004361061004c5760003560e01c80631d65e77e14610051578063292a458514610085578063a8e5862d146100a1578063bcd14805146100bf575b600080fd5b61006b60048036038101906100669190610524565b6100dd565b60405161007c959493929190610614565b60405180910390f35b61009f600480360381019061009a91906107aa565b61029d565b005b6100a96103d6565b6040516100b69190610822565b60405180910390f35b6100c76103df565b6040516100d491906108fb565b60405180910390f35b600080606080600085600060026000838152602001908152602001600020600001540361010957600080fd5b866002600089815260200190815260200160002060010154600260008a8152602001908152602001600020600201600260008b8152602001908152602001600020600301600260008c815260200190815260200160002060040160009054906101000a900460ff1682805461017d9061094c565b80601f01602080910402602001604051908101604052809291908181526020018280546101a99061094c565b80156101f65780601f106101cb576101008083540402835291602001916101f6565b820191906000526020600020905b8154815290600101906020018083116101d957829003601f168201915b505050505092508180546102099061094c565b80601f01602080910402602001604051908101604052809291908181526020018280546102359061094c565b80156102825780601f1061025757610100808354040283529160200191610282565b820191906000526020600020905b81548152906001019060200180831161026557829003601f168201915b50505050509150955095509550955095505091939590929450565b6040518060a0016040528060005481526020014281526020018381526020018281526020016000151581525060026000805481526020019081526020016000206000820151816000015560208201518160010155604082015181600201908051906020019061030d929190610437565b50606082015181600301908051906020019061032a929190610437565b5060808201518160040160006101000a81548160ff0219169083151502179055509050507fb322bdd3250d405f7845d27fa1f0753f8f7e18e40886bc254b89005c3e9c03246000544284846000604051610388959493929190610614565b60405180910390a1600160005490806001815401808255809150506001900390600052602060002001600090919091909150556000808154809291906103cd906109ac565b91905055505050565b60008054905090565b6060600180548060200260200160405190810160405280929190818152602001828054801561042d57602002820191906000526020600020905b815481526020019060010190808311610419575b5050505050905090565b8280546104439061094c565b90600052602060002090601f01602090048101928261046557600085556104ac565b82601f1061047e57805160ff19168380011785556104ac565b828001600101855582156104ac579182015b828111156104ab578251825591602001919060010190610490565b5b5090506104b991906104bd565b5090565b5b808211156104d65760008160009055506001016104be565b5090565b6000604051905090565b600080fd5b600080fd5b6000819050919050565b610501816104ee565b811461050c57600080fd5b50565b60008135905061051e816104f8565b92915050565b60006020828403121561053a576105396104e4565b5b60006105488482850161050f565b91505092915050565b61055a816104ee565b82525050565b600081519050919050565b600082825260208201905092915050565b60005b8381101561059a57808201518184015260208101905061057f565b838111156105a9576000848401525b50505050565b6000601f19601f8301169050919050565b60006105cb82610560565b6105d5818561056b565b93506105e581856020860161057c565b6105ee816105af565b840191505092915050565b60008115159050919050565b61060e816105f9565b82525050565b600060a0820190506106296000830188610551565b6106366020830187610551565b818103604083015261064881866105c0565b9050818103606083015261065c81856105c0565b905061066b6080830184610605565b9695505050505050565b600080fd5b600080fd5b7f4e487b7100000000000000000000000000000000000000000000000000000000600052604160045260246000fd5b6106b7826105af565b810181811067ffffffffffffffff821117156106d6576106d561067f565b5b80604052505050565b60006106e96104da565b90506106f582826106ae565b919050565b600067ffffffffffffffff8211156107155761071461067f565b5b61071e826105af565b9050602081019050919050565b82818337600083830152505050565b600061074d610748846106fa565b6106df565b9050828152602081018484840111156107695761076861067a565b5b61077484828561072b565b509392505050565b600082601f83011261079157610790610675565b5b81356107a184826020860161073a565b91505092915050565b600080604083850312156107c1576107c06104e4565b5b600083013567ffffffffffffffff8111156107df576107de6104e9565b5b6107eb8582860161077c565b925050602083013567ffffffffffffffff81111561080c5761080b6104e9565b5b6108188582860161077c565b9150509250929050565b60006020820190506108376000830184610551565b92915050565b600081519050919050565b600082825260208201905092915050565b6000819050602082019050919050565b610872816104ee565b82525050565b60006108848383610869565b60208301905092915050565b6000602082019050919050565b60006108a88261083d565b6108b28185610848565b93506108bd83610859565b8060005b838110156108ee5781516108d58882610878565b97506108e083610890565b9250506001810190506108c1565b5085935050505092915050565b60006020820190508181036000830152610915818461089d565b905092915050565b7f4e487b7100000000000000000000000000000000000000000000000000000000600052602260045260246000fd5b6000600282049050600182168061096457607f821691505b6020821081036109775761097661091d565b5b50919050565b7f4e487b7100000000000000000000000000000000000000000000000000000000600052601160045260246000fd5b60006109b7826104ee565b91507fffffffffffffffffffffffffffffffffffffffffffffffffffffffffffffffff82036109e9576109e861097d565b5b60018201905091905056fea2646970667358221220df8feabcb7b2b5110e972492174d172c8d26fb0de11874cc72bf47636ce85ac864736f6c634300080d0033",
  "immutableReferences": {},
  "source": "// SPDX-License-Identifier: MIT\npragma solidity ^0.8.0;\n\n// pragma abicoder v2;\n\ncontract ToDo {\n    struct Task {\n        uint256 id;\n        uint256 date;\n        string content;\n        string author;\n        bool done;\n    }\n\n    uint256 lastId;\n    uint256[] taskIds;\n    mapping(uint256 => Task) tasks;\n\n    constructor() {\n        lastId = 1;\n    }\n\n    event TaskCreated(uint256, uint256, string, string, bool);\n\n    // Create a new task\n    function createTask(string memory _content, string memory _author) public {\n        tasks[lastId] = Task(lastId, block.timestamp, _content, _author, false);\n        emit TaskCreated(lastId, block.timestamp, _content, _author, false);\n        taskIds.push(lastId);\n        lastId++;\n    }\n\n    function getTaskIds() public view returns (uint256[] memory) {\n        return taskIds; // Can't we just map the keys?\n    }\n\n    // Get task\n    function getTask(uint256 id)\n        public\n        view\n        tasksExists(id)\n        returns (\n            uint256,\n            uint256,\n            string memory,\n            string memory,\n            bool\n        )\n    {\n        return (\n            id,\n            tasks[id].date,\n            tasks[id].content,\n            tasks[id].author,\n            tasks[id].done\n        );\n    }\n\n    // Modifier runs before a function\n    // This modifier checks if the task per id exists\n    modifier tasksExists(uint256 id) {\n        if (tasks[id].id == 0) {\n            revert();\n        }\n        _;\n    }\n\n    // Getter for last id\n    function getLastId() public view returns (uint256) {\n        return lastId;\n    }\n}\n",
  "sourcePath": "D:\\Code\\todolist-eth\\Blockchain\\contracts\\contracts\\ToDo.sol",
  "compiler": {
    "name": "solc",
    "version": "0.8.13+commit.abaa5c0e.Emscripten.clang"
  },
  "schemaVersion": "3.4.7",
  "updatedAt": "2022-04-16T06:59:45.223Z",
  "networkType": "ethereum",
  "devdoc": {
    "kind": "dev",
    "methods": {},
    "version": 1
  },
  "userdoc": {
    "kind": "user",
    "methods": {},
    "version": 1
  }
}