{
  "contractName": "ToDo",
  "abi": [
    {
      "inputs": [],
      "stateMutability": "nonpayable",
      "type": "constructor"
    },
    {
      "anonymous": false,
      "inputs": [
        {
          "indexed": false,
          "internalType": "uint256",
          "name": "",
          "type": "uint256"
        },
        {
          "indexed": false,
          "internalType": "uint256",
          "name": "",
          "type": "uint256"
        },
        {
          "indexed": false,
          "internalType": "string",
          "name": "",
          "type": "string"
        },
        {
          "indexed": false,
          "internalType": "string",
          "name": "",
          "type": "string"
        },
        {
          "indexed": false,
          "internalType": "bool",
          "name": "",
          "type": "bool"
        }
      ],
      "name": "TaskCreated",
      "type": "event"
    },
    {
      "anonymous": false,
      "inputs": [
        {
          "indexed": false,
          "internalType": "uint256",
          "name": "",
          "type": "uint256"
        },
        {
          "indexed": false,
          "internalType": "bool",
          "name": "",
          "type": "bool"
        }
      ],
      "name": "TaskToggled",
      "type": "event"
    },
    {
      "inputs": [
        {
          "internalType": "string",
          "name": "_content",
          "type": "string"
        },
        {
          "internalType": "string",
          "name": "_author",
          "type": "string"
        }
      ],
      "name": "createTask",
      "outputs": [],
      "stateMutability": "nonpayable",
      "type": "function"
    },
    {
      "inputs": [],
      "name": "getTaskIds",
      "outputs": [
        {
          "internalType": "uint256[]",
          "name": "",
          "type": "uint256[]"
        }
      ],
      "stateMutability": "view",
      "type": "function",
      "constant": true
    },
    {
      "inputs": [
        {
          "internalType": "uint256",
          "name": "id",
          "type": "uint256"
        }
      ],
      "name": "getTask",
      "outputs": [
        {
          "internalType": "uint256",
          "name": "",
          "type": "uint256"
        },
        {
          "internalType": "uint256",
          "name": "",
          "type": "uint256"
        },
        {
          "internalType": "string",
          "name": "",
          "type": "string"
        },
        {
          "internalType": "string",
          "name": "",
          "type": "string"
        },
        {
          "internalType": "bool",
          "name": "",
          "type": "bool"
        }
      ],
      "stateMutability": "view",
      "type": "function",
      "constant": true
    },
    {
      "inputs": [],
      "name": "getLastId",
      "outputs": [
        {
          "internalType": "uint256",
          "name": "",
          "type": "uint256"
        }
      ],
      "stateMutability": "view",
      "type": "function",
      "constant": true
    },
    {
      "inputs": [
        {
          "internalType": "uint256",
          "name": "id",
          "type": "uint256"
        }
      ],
      "name": "toggleTask",
      "outputs": [],
      "stateMutability": "nonpayable",
      "type": "function"
    }
  ],
  "bytecode": "0x608060405234801561001057600080fd5b506001600081905550610d0e806100286000396000f3fe608060405234801561001057600080fd5b50600436106100575760003560e01c80631d65e77e1461005c578063292a458514610090578063613137a4146100ac578063a8e5862d146100c8578063bcd14805146100e6575b600080fd5b610076600480360381019061007191906107df565b610104565b6040516100879594939291906108cf565b60405180910390f35b6100aa60048036038101906100a59190610a65565b6102c4565b005b6100c660048036038101906100c191906107df565b6103fd565b005b6100d0610691565b6040516100dd9190610add565b60405180910390f35b6100ee61069a565b6040516100fb9190610bb6565b60405180910390f35b600080606080600085600060026000838152602001908152602001600020600001540361013057600080fd5b866002600089815260200190815260200160002060010154600260008a8152602001908152602001600020600201600260008b8152602001908152602001600020600301600260008c815260200190815260200160002060040160009054906101000a900460ff168280546101a490610c07565b80601f01602080910402602001604051908101604052809291908181526020018280546101d090610c07565b801561021d5780601f106101f25761010080835404028352916020019161021d565b820191906000526020600020905b81548152906001019060200180831161020057829003601f168201915b5050505050925081805461023090610c07565b80601f016020809104026020016040519081016040528092919081815260200182805461025c90610c07565b80156102a95780601f1061027e576101008083540402835291602001916102a9565b820191906000526020600020905b81548152906001019060200180831161028c57829003601f168201915b50505050509150955095509550955095505091939590929450565b6040518060a001604052806000548152602001428152602001838152602001828152602001600015158152506002600080548152602001908152602001600020600082015181600001556020820151816001015560408201518160020190805190602001906103349291906106f2565b5060608201518160030190805190602001906103519291906106f2565b5060808201518160040160006101000a81548160ff0219169083151502179055509050507fb322bdd3250d405f7845d27fa1f0753f8f7e18e40886bc254b89005c3e9c032460005442848460006040516103af9594939291906108cf565b60405180910390a1600160005490806001815401808255809150506001900390600052602060002001600090919091909150556000808154809291906103f490610c67565b91905055505050565b80600060026000838152602001908152602001600020600001540361042157600080fd5b6000600260008481526020019081526020016000206040518060a0016040529081600082015481526020016001820154815260200160028201805461046590610c07565b80601f016020809104026020016040519081016040528092919081815260200182805461049190610c07565b80156104de5780601f106104b3576101008083540402835291602001916104de565b820191906000526020600020905b8154815290600101906020018083116104c157829003601f168201915b505050505081526020016003820180546104f790610c07565b80601f016020809104026020016040519081016040528092919081815260200182805461052390610c07565b80156105705780601f1061054557610100808354040283529160200191610570565b820191906000526020600020905b81548152906001019060200180831161055357829003601f168201915b505050505081526020016004820160009054906101000a900460ff16151515158152505090506002600084815260200190815260200160002060040160009054906101000a900460ff161581608001901515908115158152505080600260008581526020019081526020016000206000820151816000015560208201518160010155604082015181600201908051906020019061060e9291906106f2565b50606082015181600301908051906020019061062b9291906106f2565b5060808201518160040160006101000a81548160ff0219169083151502179055509050507fe668c7a227d9261aa1f964bf5a852ab642446a7af6c29405caf8d0e9ce2c11f0838260800151604051610684929190610caf565b60405180910390a1505050565b60008054905090565b606060018054806020026020016040519081016040528092919081815260200182805480156106e857602002820191906000526020600020905b8154815260200190600101908083116106d4575b5050505050905090565b8280546106fe90610c07565b90600052602060002090601f0160209004810192826107205760008555610767565b82601f1061073957805160ff1916838001178555610767565b82800160010185558215610767579182015b8281111561076657825182559160200191906001019061074b565b5b5090506107749190610778565b5090565b5b80821115610791576000816000905550600101610779565b5090565b6000604051905090565b600080fd5b600080fd5b6000819050919050565b6107bc816107a9565b81146107c757600080fd5b50565b6000813590506107d9816107b3565b92915050565b6000602082840312156107f5576107f461079f565b5b6000610803848285016107ca565b91505092915050565b610815816107a9565b82525050565b600081519050919050565b600082825260208201905092915050565b60005b8381101561085557808201518184015260208101905061083a565b83811115610864576000848401525b50505050565b6000601f19601f8301169050919050565b60006108868261081b565b6108908185610826565b93506108a0818560208601610837565b6108a98161086a565b840191505092915050565b60008115159050919050565b6108c9816108b4565b82525050565b600060a0820190506108e4600083018861080c565b6108f1602083018761080c565b8181036040830152610903818661087b565b90508181036060830152610917818561087b565b905061092660808301846108c0565b9695505050505050565b600080fd5b600080fd5b7f4e487b7100000000000000000000000000000000000000000000000000000000600052604160045260246000fd5b6109728261086a565b810181811067ffffffffffffffff821117156109915761099061093a565b5b80604052505050565b60006109a4610795565b90506109b08282610969565b919050565b600067ffffffffffffffff8211156109d0576109cf61093a565b5b6109d98261086a565b9050602081019050919050565b82818337600083830152505050565b6000610a08610a03846109b5565b61099a565b905082815260208101848484011115610a2457610a23610935565b5b610a2f8482856109e6565b509392505050565b600082601f830112610a4c57610a4b610930565b5b8135610a5c8482602086016109f5565b91505092915050565b60008060408385031215610a7c57610a7b61079f565b5b600083013567ffffffffffffffff811115610a9a57610a996107a4565b5b610aa685828601610a37565b925050602083013567ffffffffffffffff811115610ac757610ac66107a4565b5b610ad385828601610a37565b9150509250929050565b6000602082019050610af2600083018461080c565b92915050565b600081519050919050565b600082825260208201905092915050565b6000819050602082019050919050565b610b2d816107a9565b82525050565b6000610b3f8383610b24565b60208301905092915050565b6000602082019050919050565b6000610b6382610af8565b610b6d8185610b03565b9350610b7883610b14565b8060005b83811015610ba9578151610b908882610b33565b9750610b9b83610b4b565b925050600181019050610b7c565b5085935050505092915050565b60006020820190508181036000830152610bd08184610b58565b905092915050565b7f4e487b7100000000000000000000000000000000000000000000000000000000600052602260045260246000fd5b60006002820490506001821680610c1f57607f821691505b602082108103610c3257610c31610bd8565b5b50919050565b7f4e487b7100000000000000000000000000000000000000000000000000000000600052601160045260246000fd5b6000610c72826107a9565b91507fffffffffffffffffffffffffffffffffffffffffffffffffffffffffffffffff8203610ca457610ca3610c38565b5b600182019050919050565b6000604082019050610cc4600083018561080c565b610cd160208301846108c0565b939250505056fea2646970667358221220caed63f29a4fc686565fcf335b642cd38395bf976c5564e37b9b26d21498147f64736f6c634300080d0033",
  "immutableReferences": {},
  "source": "// SPDX-License-Identifier: MIT\npragma solidity ^0.8.0;\n\n// pragma abicoder v2;\n\ncontract ToDo {\n    struct Task {\n        uint256 id;\n        uint256 date;\n        string content;\n        string author;\n        bool done;\n    }\n\n    uint256 lastId;\n    uint256[] taskIds;\n    mapping(uint256 => Task) tasks;\n\n    constructor() {\n        lastId = 1;\n    }\n\n    event TaskCreated(uint256, uint256, string, string, bool);\n    event TaskToggled(uint256, bool);\n\n    // Create a new task\n    function createTask(string memory _content, string memory _author) public {\n        tasks[lastId] = Task(lastId, block.timestamp, _content, _author, false);\n        emit TaskCreated(lastId, block.timestamp, _content, _author, false);\n        taskIds.push(lastId);\n        lastId++;\n    }\n\n    function getTaskIds() public view returns (uint256[] memory) {\n        return taskIds; // Can't we just map the keys?\n    }\n\n    // Get task\n    function getTask(uint256 id)\n        public\n        view\n        tasksExists(id)\n        returns (\n            uint256,\n            uint256,\n            string memory,\n            string memory,\n            bool\n        )\n    {\n        return (\n            id,\n            tasks[id].date,\n            tasks[id].content,\n            tasks[id].author,\n            tasks[id].done\n        );\n    }\n\n    // Modifier runs before a function\n    // This modifier checks if the task per id exists\n    modifier tasksExists(uint256 id) {\n        if (tasks[id].id == 0) {\n            revert();\n        }\n        _;\n    }\n\n    // Getter for last id\n    function getLastId() public view returns (uint256) {\n        return lastId;\n    }\n\n    function toggleTask(uint256 id) public tasksExists(id) {\n        Task memory task = tasks[id];\n        task.done = !tasks[id].done;\n        tasks[id] = task;\n        emit TaskToggled(id, task.done);\n    }\n}\n",
  "sourcePath": "D:\\Code\\todolist-eth\\Blockchain\\contracts\\contracts\\ToDo.sol",
  "compiler": {
    "name": "solc",
    "version": "0.8.13+commit.abaa5c0e.Emscripten.clang"
  },
  "schemaVersion": "3.4.7",
  "updatedAt": "2022-04-20T14:03:43.780Z",
  "networkType": "ethereum",
  "devdoc": {
    "kind": "dev",
    "methods": {},
    "version": 1
  },
  "userdoc": {
    "kind": "user",
    "methods": {},
    "version": 1
  }
}