{
  "contractName": "ToDo",
  "abi": [
    {
      "inputs": [],
      "stateMutability": "nonpayable",
      "type": "constructor"
    },
    {
      "anonymous": false,
      "inputs": [
        {
          "indexed": false,
          "internalType": "uint256",
          "name": "",
          "type": "uint256"
        },
        {
          "indexed": false,
          "internalType": "uint256",
          "name": "",
          "type": "uint256"
        },
        {
          "indexed": false,
          "internalType": "string",
          "name": "",
          "type": "string"
        },
        {
          "indexed": false,
          "internalType": "string",
          "name": "",
          "type": "string"
        },
        {
          "indexed": false,
          "internalType": "bool",
          "name": "",
          "type": "bool"
        }
      ],
      "name": "TaskCreated",
      "type": "event"
    },
    {
      "anonymous": false,
      "inputs": [
        {
          "indexed": false,
          "internalType": "uint256",
          "name": "",
          "type": "uint256"
        }
      ],
      "name": "TaskDeleted",
      "type": "event"
    },
    {
      "anonymous": false,
      "inputs": [
        {
          "indexed": false,
          "internalType": "uint256",
          "name": "",
          "type": "uint256"
        },
        {
          "indexed": false,
          "internalType": "bool",
          "name": "",
          "type": "bool"
        }
      ],
      "name": "TaskToggled",
      "type": "event"
    },
    {
      "inputs": [
        {
          "internalType": "string",
          "name": "_content",
          "type": "string"
        },
        {
          "internalType": "string",
          "name": "_author",
          "type": "string"
        }
      ],
      "name": "createTask",
      "outputs": [],
      "stateMutability": "nonpayable",
      "type": "function"
    },
    {
      "inputs": [],
      "name": "getTaskIds",
      "outputs": [
        {
          "internalType": "uint256[]",
          "name": "",
          "type": "uint256[]"
        }
      ],
      "stateMutability": "view",
      "type": "function",
      "constant": true
    },
    {
      "inputs": [
        {
          "internalType": "uint256",
          "name": "id",
          "type": "uint256"
        }
      ],
      "name": "getTask",
      "outputs": [
        {
          "internalType": "uint256",
          "name": "",
          "type": "uint256"
        },
        {
          "internalType": "uint256",
          "name": "",
          "type": "uint256"
        },
        {
          "internalType": "string",
          "name": "",
          "type": "string"
        },
        {
          "internalType": "string",
          "name": "",
          "type": "string"
        },
        {
          "internalType": "bool",
          "name": "",
          "type": "bool"
        }
      ],
      "stateMutability": "view",
      "type": "function",
      "constant": true
    },
    {
      "inputs": [],
      "name": "getLastId",
      "outputs": [
        {
          "internalType": "uint256",
          "name": "",
          "type": "uint256"
        }
      ],
      "stateMutability": "view",
      "type": "function",
      "constant": true
    },
    {
      "inputs": [
        {
          "internalType": "uint256",
          "name": "id",
          "type": "uint256"
        }
      ],
      "name": "toggleTask",
      "outputs": [],
      "stateMutability": "nonpayable",
      "type": "function"
    },
    {
      "inputs": [
        {
          "internalType": "uint256",
          "name": "id",
          "type": "uint256"
        }
      ],
      "name": "deleteTask",
      "outputs": [],
      "stateMutability": "nonpayable",
      "type": "function"
    }
  ],
  "bytecode": "0x608060405234801561001057600080fd5b506001600081905550610e2e806100286000396000f3fe608060405234801561001057600080fd5b50600436106100625760003560e01c80631d65e77e14610067578063292a45851461009b578063560f3192146100b7578063613137a4146100d3578063a8e5862d146100ef578063bcd148051461010d575b600080fd5b610081600480360381019061007c91906108ff565b61012b565b6040516100929594939291906109ef565b60405180910390f35b6100b560048036038101906100b09190610b85565b6102eb565b005b6100d160048036038101906100cc91906108ff565b610424565b005b6100ed60048036038101906100e891906108ff565b6104dd565b005b6100f7610771565b6040516101049190610bfd565b60405180910390f35b61011561077a565b6040516101229190610cd6565b60405180910390f35b600080606080600085600060026000838152602001908152602001600020600001540361015757600080fd5b866002600089815260200190815260200160002060010154600260008a8152602001908152602001600020600201600260008b8152602001908152602001600020600301600260008c815260200190815260200160002060040160009054906101000a900460ff168280546101cb90610d27565b80601f01602080910402602001604051908101604052809291908181526020018280546101f790610d27565b80156102445780601f1061021957610100808354040283529160200191610244565b820191906000526020600020905b81548152906001019060200180831161022757829003601f168201915b5050505050925081805461025790610d27565b80601f016020809104026020016040519081016040528092919081815260200182805461028390610d27565b80156102d05780601f106102a5576101008083540402835291602001916102d0565b820191906000526020600020905b8154815290600101906020018083116102b357829003601f168201915b50505050509150955095509550955095505091939590929450565b6040518060a0016040528060005481526020014281526020018381526020018281526020016000151581525060026000805481526020019081526020016000206000820151816000015560208201518160010155604082015181600201908051906020019061035b9291906107d2565b5060608201518160030190805190602001906103789291906107d2565b5060808201518160040160006101000a81548160ff0219169083151502179055509050507fb322bdd3250d405f7845d27fa1f0753f8f7e18e40886bc254b89005c3e9c032460005442848460006040516103d69594939291906109ef565b60405180910390a16001600054908060018154018082558091505060019003906000526020600020016000909190919091505560008081548092919061041b90610d87565b91905055505050565b80600060026000838152602001908152602001600020600001540361044857600080fd5b60026000838152602001908152602001600020600080820160009055600182016000905560028201600061047c9190610858565b60038201600061048c9190610858565b6004820160006101000a81549060ff021916905550507fd078b251d950cc55c44340be1db732337ef4939a76e1367ee271ad2cb19c46af826040516104d19190610bfd565b60405180910390a15050565b80600060026000838152602001908152602001600020600001540361050157600080fd5b6000600260008481526020019081526020016000206040518060a0016040529081600082015481526020016001820154815260200160028201805461054590610d27565b80601f016020809104026020016040519081016040528092919081815260200182805461057190610d27565b80156105be5780601f10610593576101008083540402835291602001916105be565b820191906000526020600020905b8154815290600101906020018083116105a157829003601f168201915b505050505081526020016003820180546105d790610d27565b80601f016020809104026020016040519081016040528092919081815260200182805461060390610d27565b80156106505780601f1061062557610100808354040283529160200191610650565b820191906000526020600020905b81548152906001019060200180831161063357829003601f168201915b505050505081526020016004820160009054906101000a900460ff16151515158152505090506002600084815260200190815260200160002060040160009054906101000a900460ff16158160800190151590811515815250508060026000858152602001908152602001600020600082015181600001556020820151816001015560408201518160020190805190602001906106ee9291906107d2565b50606082015181600301908051906020019061070b9291906107d2565b5060808201518160040160006101000a81548160ff0219169083151502179055509050507fe668c7a227d9261aa1f964bf5a852ab642446a7af6c29405caf8d0e9ce2c11f0838260800151604051610764929190610dcf565b60405180910390a1505050565b60008054905090565b606060018054806020026020016040519081016040528092919081815260200182805480156107c857602002820191906000526020600020905b8154815260200190600101908083116107b4575b5050505050905090565b8280546107de90610d27565b90600052602060002090601f0160209004810192826108005760008555610847565b82601f1061081957805160ff1916838001178555610847565b82800160010185558215610847579182015b8281111561084657825182559160200191906001019061082b565b5b5090506108549190610898565b5090565b50805461086490610d27565b6000825580601f106108765750610895565b601f0160209004906000526020600020908101906108949190610898565b5b50565b5b808211156108b1576000816000905550600101610899565b5090565b6000604051905090565b600080fd5b600080fd5b6000819050919050565b6108dc816108c9565b81146108e757600080fd5b50565b6000813590506108f9816108d3565b92915050565b600060208284031215610915576109146108bf565b5b6000610923848285016108ea565b91505092915050565b610935816108c9565b82525050565b600081519050919050565b600082825260208201905092915050565b60005b8381101561097557808201518184015260208101905061095a565b83811115610984576000848401525b50505050565b6000601f19601f8301169050919050565b60006109a68261093b565b6109b08185610946565b93506109c0818560208601610957565b6109c98161098a565b840191505092915050565b60008115159050919050565b6109e9816109d4565b82525050565b600060a082019050610a04600083018861092c565b610a11602083018761092c565b8181036040830152610a23818661099b565b90508181036060830152610a37818561099b565b9050610a4660808301846109e0565b9695505050505050565b600080fd5b600080fd5b7f4e487b7100000000000000000000000000000000000000000000000000000000600052604160045260246000fd5b610a928261098a565b810181811067ffffffffffffffff82111715610ab157610ab0610a5a565b5b80604052505050565b6000610ac46108b5565b9050610ad08282610a89565b919050565b600067ffffffffffffffff821115610af057610aef610a5a565b5b610af98261098a565b9050602081019050919050565b82818337600083830152505050565b6000610b28610b2384610ad5565b610aba565b905082815260208101848484011115610b4457610b43610a55565b5b610b4f848285610b06565b509392505050565b600082601f830112610b6c57610b6b610a50565b5b8135610b7c848260208601610b15565b91505092915050565b60008060408385031215610b9c57610b9b6108bf565b5b600083013567ffffffffffffffff811115610bba57610bb96108c4565b5b610bc685828601610b57565b925050602083013567ffffffffffffffff811115610be757610be66108c4565b5b610bf385828601610b57565b9150509250929050565b6000602082019050610c12600083018461092c565b92915050565b600081519050919050565b600082825260208201905092915050565b6000819050602082019050919050565b610c4d816108c9565b82525050565b6000610c5f8383610c44565b60208301905092915050565b6000602082019050919050565b6000610c8382610c18565b610c8d8185610c23565b9350610c9883610c34565b8060005b83811015610cc9578151610cb08882610c53565b9750610cbb83610c6b565b925050600181019050610c9c565b5085935050505092915050565b60006020820190508181036000830152610cf08184610c78565b905092915050565b7f4e487b7100000000000000000000000000000000000000000000000000000000600052602260045260246000fd5b60006002820490506001821680610d3f57607f821691505b602082108103610d5257610d51610cf8565b5b50919050565b7f4e487b7100000000000000000000000000000000000000000000000000000000600052601160045260246000fd5b6000610d92826108c9565b91507fffffffffffffffffffffffffffffffffffffffffffffffffffffffffffffffff8203610dc457610dc3610d58565b5b600182019050919050565b6000604082019050610de4600083018561092c565b610df160208301846109e0565b939250505056fea2646970667358221220297bf0f5b11f7fb4927bb6f3dfdd27205a4e64d195fc1cae1c655ecd9667a5ac64736f6c634300080d0033",
  "immutableReferences": {},
  "source": "// SPDX-License-Identifier: MIT\npragma solidity ^0.8.0;\n\n// pragma abicoder v2;\n\ncontract ToDo {\n    struct Task {\n        uint256 id;\n        uint256 date;\n        string content;\n        string author;\n        bool done;\n    }\n\n    uint256 lastId;\n    uint256[] taskIds;\n    mapping(uint256 => Task) tasks;\n\n    constructor() {\n        lastId = 1;\n    }\n\n    event TaskCreated(uint256, uint256, string, string, bool);\n    event TaskToggled(uint256, bool);\n    event TaskDeleted(uint256);\n\n    // Create a new task\n    function createTask(string memory _content, string memory _author) public {\n        tasks[lastId] = Task(lastId, block.timestamp, _content, _author, false);\n        emit TaskCreated(lastId, block.timestamp, _content, _author, false);\n        taskIds.push(lastId);\n        lastId++;\n    }\n\n    function getTaskIds() public view returns (uint256[] memory) {\n        return taskIds; // Can't we just map the keys?\n    }\n\n    // Get task\n    function getTask(uint256 id)\n        public\n        view\n        tasksExists(id)\n        returns (\n            uint256,\n            uint256,\n            string memory,\n            string memory,\n            bool\n        )\n    {\n        return (\n            id,\n            tasks[id].date,\n            tasks[id].content,\n            tasks[id].author,\n            tasks[id].done\n        );\n    }\n\n    // Modifier runs before a function\n    // This modifier checks if the task per id exists\n    modifier tasksExists(uint256 id) {\n        if (tasks[id].id == 0) {\n            revert();\n        }\n        _;\n    }\n\n    // Getter for last id\n    function getLastId() public view returns (uint256) {\n        return lastId;\n    }\n\n    // Toggle task as completed or not\n    function toggleTask(uint256 id) public tasksExists(id) {\n        Task memory task = tasks[id];\n        task.done = !tasks[id].done;\n        tasks[id] = task;\n        emit TaskToggled(id, task.done);\n    }\n\n    // Deletes the task\n    function deleteTask(uint256 id) public tasksExists(id) {\n        delete tasks[id];\n        emit TaskDeleted(id);\n    }\n}\n",
  "sourcePath": "D:\\Code\\todolist-eth\\Blockchain\\contracts\\contracts\\ToDo.sol",
  "compiler": {
    "name": "solc",
    "version": "0.8.13+commit.abaa5c0e.Emscripten.clang"
  },
  "schemaVersion": "3.4.7",
  "updatedAt": "2022-04-21T15:41:17.909Z",
  "networkType": "ethereum",
  "devdoc": {
    "kind": "dev",
    "methods": {},
    "version": 1
  },
  "userdoc": {
    "kind": "user",
    "methods": {},
    "version": 1
  }
}